{
  "contractName": "Spongebobbiez",
  "abi": [
    {
      "inputs": [],
      "stateMutability": "nonpayable",
      "type": "constructor"
    },
    {
      "anonymous": false,
      "inputs": [
        {
          "indexed": true,
          "internalType": "address",
          "name": "owner",
          "type": "address"
        },
        {
          "indexed": true,
          "internalType": "address",
          "name": "approved",
          "type": "address"
        },
        {
          "indexed": true,
          "internalType": "uint256",
          "name": "tokenId",
          "type": "uint256"
        }
      ],
      "name": "Approval",
      "type": "event"
    },
    {
      "anonymous": false,
      "inputs": [
        {
          "indexed": true,
          "internalType": "address",
          "name": "owner",
          "type": "address"
        },
        {
          "indexed": true,
          "internalType": "address",
          "name": "operator",
          "type": "address"
        },
        {
          "indexed": false,
          "internalType": "bool",
          "name": "approved",
          "type": "bool"
        }
      ],
      "name": "ApprovalForAll",
      "type": "event"
    },
    {
      "anonymous": false,
      "inputs": [
        {
          "indexed": true,
          "internalType": "address",
          "name": "previousOwner",
          "type": "address"
        },
        {
          "indexed": true,
          "internalType": "address",
          "name": "newOwner",
          "type": "address"
        }
      ],
      "name": "OwnershipTransferred",
      "type": "event"
    },
    {
      "anonymous": false,
      "inputs": [
        {
          "indexed": false,
          "internalType": "address",
          "name": "account",
          "type": "address"
        }
      ],
      "name": "Paused",
      "type": "event"
    },
    {
      "anonymous": false,
      "inputs": [
        {
          "indexed": true,
          "internalType": "address",
          "name": "from",
          "type": "address"
        },
        {
          "indexed": true,
          "internalType": "address",
          "name": "to",
          "type": "address"
        },
        {
          "indexed": true,
          "internalType": "uint256",
          "name": "tokenId",
          "type": "uint256"
        }
      ],
      "name": "Transfer",
      "type": "event"
    },
    {
      "anonymous": false,
      "inputs": [
        {
          "indexed": false,
          "internalType": "address",
          "name": "account",
          "type": "address"
        }
      ],
      "name": "Unpaused",
      "type": "event"
    },
    {
      "inputs": [
        {
          "internalType": "address",
          "name": "to",
          "type": "address"
        },
        {
          "internalType": "uint256",
          "name": "tokenId",
          "type": "uint256"
        }
      ],
      "name": "approve",
      "outputs": [],
      "stateMutability": "nonpayable",
      "type": "function"
    },
    {
      "inputs": [
        {
          "internalType": "address",
          "name": "owner",
          "type": "address"
        }
      ],
      "name": "balanceOf",
      "outputs": [
        {
          "internalType": "uint256",
          "name": "",
          "type": "uint256"
        }
      ],
      "stateMutability": "view",
      "type": "function",
      "constant": true
    },
    {
      "inputs": [
        {
          "internalType": "uint256",
          "name": "tokenId",
          "type": "uint256"
        }
      ],
      "name": "getApproved",
      "outputs": [
        {
          "internalType": "address",
          "name": "",
          "type": "address"
        }
      ],
      "stateMutability": "view",
      "type": "function",
      "constant": true
    },
    {
      "inputs": [
        {
          "internalType": "address",
          "name": "owner",
          "type": "address"
        },
        {
          "internalType": "address",
          "name": "operator",
          "type": "address"
        }
      ],
      "name": "isApprovedForAll",
      "outputs": [
        {
          "internalType": "bool",
          "name": "",
          "type": "bool"
        }
      ],
      "stateMutability": "view",
      "type": "function",
      "constant": true
    },
    {
      "inputs": [],
      "name": "mintStage",
      "outputs": [
        {
          "internalType": "enum Spongebobbiez.Stage",
          "name": "",
          "type": "uint8"
        }
      ],
      "stateMutability": "view",
      "type": "function",
      "constant": true
    },
    {
      "inputs": [],
      "name": "name",
      "outputs": [
        {
          "internalType": "string",
          "name": "",
          "type": "string"
        }
      ],
      "stateMutability": "view",
      "type": "function",
      "constant": true
    },
    {
      "inputs": [],
      "name": "owner",
      "outputs": [
        {
          "internalType": "address",
          "name": "",
          "type": "address"
        }
      ],
      "stateMutability": "view",
      "type": "function",
      "constant": true
    },
    {
      "inputs": [
        {
          "internalType": "uint256",
          "name": "tokenId",
          "type": "uint256"
        }
      ],
      "name": "ownerOf",
      "outputs": [
        {
          "internalType": "address",
          "name": "",
          "type": "address"
        }
      ],
      "stateMutability": "view",
      "type": "function",
      "constant": true
    },
    {
      "inputs": [],
      "name": "paused",
      "outputs": [
        {
          "internalType": "bool",
          "name": "",
          "type": "bool"
        }
      ],
      "stateMutability": "view",
      "type": "function",
      "constant": true
    },
    {
      "inputs": [],
      "name": "paymentReceiver",
      "outputs": [
        {
          "internalType": "address payable",
          "name": "",
          "type": "address"
        }
      ],
      "stateMutability": "view",
      "type": "function",
      "constant": true
    },
    {
      "inputs": [],
      "name": "renounceOwnership",
      "outputs": [],
      "stateMutability": "nonpayable",
      "type": "function"
    },
    {
      "inputs": [
        {
          "internalType": "address",
          "name": "from",
          "type": "address"
        },
        {
          "internalType": "address",
          "name": "to",
          "type": "address"
        },
        {
          "internalType": "uint256",
          "name": "tokenId",
          "type": "uint256"
        }
      ],
      "name": "safeTransferFrom",
      "outputs": [],
      "stateMutability": "nonpayable",
      "type": "function"
    },
    {
      "inputs": [
        {
          "internalType": "address",
          "name": "from",
          "type": "address"
        },
        {
          "internalType": "address",
          "name": "to",
          "type": "address"
        },
        {
          "internalType": "uint256",
          "name": "tokenId",
          "type": "uint256"
        },
        {
          "internalType": "bytes",
          "name": "data",
          "type": "bytes"
        }
      ],
      "name": "safeTransferFrom",
      "outputs": [],
      "stateMutability": "nonpayable",
      "type": "function"
    },
    {
      "inputs": [
        {
          "internalType": "address",
          "name": "operator",
          "type": "address"
        },
        {
          "internalType": "bool",
          "name": "approved",
          "type": "bool"
        }
      ],
      "name": "setApprovalForAll",
      "outputs": [],
      "stateMutability": "nonpayable",
      "type": "function"
    },
    {
      "inputs": [],
      "name": "symbol",
      "outputs": [
        {
          "internalType": "string",
          "name": "",
          "type": "string"
        }
      ],
      "stateMutability": "view",
      "type": "function",
      "constant": true
    },
    {
      "inputs": [
        {
          "internalType": "uint256",
          "name": "index",
          "type": "uint256"
        }
      ],
      "name": "tokenByIndex",
      "outputs": [
        {
          "internalType": "uint256",
          "name": "",
          "type": "uint256"
        }
      ],
      "stateMutability": "view",
      "type": "function",
      "constant": true
    },
    {
      "inputs": [
        {
          "internalType": "address",
          "name": "owner",
          "type": "address"
        },
        {
          "internalType": "uint256",
          "name": "index",
          "type": "uint256"
        }
      ],
      "name": "tokenOfOwnerByIndex",
      "outputs": [
        {
          "internalType": "uint256",
          "name": "",
          "type": "uint256"
        }
      ],
      "stateMutability": "view",
      "type": "function",
      "constant": true
    },
    {
      "inputs": [],
      "name": "totalSupply",
      "outputs": [
        {
          "internalType": "uint256",
          "name": "",
          "type": "uint256"
        }
      ],
      "stateMutability": "view",
      "type": "function",
      "constant": true
    },
    {
      "inputs": [
        {
          "internalType": "address",
          "name": "from",
          "type": "address"
        },
        {
          "internalType": "address",
          "name": "to",
          "type": "address"
        },
        {
          "internalType": "uint256",
          "name": "tokenId",
          "type": "uint256"
        }
      ],
      "name": "transferFrom",
      "outputs": [],
      "stateMutability": "nonpayable",
      "type": "function"
    },
    {
      "inputs": [
        {
          "internalType": "address",
          "name": "newOwner",
          "type": "address"
        }
      ],
      "name": "transferOwnership",
      "outputs": [],
      "stateMutability": "nonpayable",
      "type": "function"
    },
    {
      "inputs": [
        {
          "internalType": "address",
          "name": "",
          "type": "address"
        }
      ],
      "name": "whitelisted",
      "outputs": [
        {
          "internalType": "bool",
          "name": "",
          "type": "bool"
        }
      ],
      "stateMutability": "view",
      "type": "function",
      "constant": true
    },
    {
      "stateMutability": "payable",
      "type": "receive",
      "payable": true
    },
    {
      "inputs": [],
      "name": "pause",
      "outputs": [],
      "stateMutability": "nonpayable",
      "type": "function"
    },
    {
      "inputs": [],
      "name": "unpause",
      "outputs": [],
      "stateMutability": "nonpayable",
      "type": "function"
    },
    {
      "inputs": [],
      "name": "mint",
      "outputs": [
        {
          "internalType": "bool",
          "name": "",
          "type": "bool"
        }
      ],
      "stateMutability": "payable",
      "type": "function",
      "payable": true
    },
    {
      "inputs": [
        {
          "internalType": "address",
          "name": "_user",
          "type": "address"
        }
      ],
      "name": "whitelist",
      "outputs": [],
      "stateMutability": "nonpayable",
      "type": "function"
    },
    {
      "inputs": [],
      "name": "withdraw",
      "outputs": [
        {
          "internalType": "bool",
          "name": "",
          "type": "bool"
        }
      ],
      "stateMutability": "nonpayable",
      "type": "function"
    },
    {
      "inputs": [
        {
          "internalType": "string",
          "name": "_newURI",
          "type": "string"
        }
      ],
      "name": "setBaseURI",
      "outputs": [],
      "stateMutability": "nonpayable",
      "type": "function"
    },
    {
      "inputs": [
        {
          "internalType": "uint256",
          "name": "tokenId",
          "type": "uint256"
        }
      ],
      "name": "tokenURI",
      "outputs": [
        {
          "internalType": "string",
          "name": "",
          "type": "string"
        }
      ],
      "stateMutability": "view",
      "type": "function",
      "constant": true
    },
    {
      "inputs": [],
      "name": "updateMintStage",
      "outputs": [],
      "stateMutability": "nonpayable",
      "type": "function"
    },
    {
      "inputs": [
        {
          "internalType": "bytes4",
          "name": "interfaceId",
          "type": "bytes4"
        }
      ],
      "name": "supportsInterface",
      "outputs": [
        {
          "internalType": "bool",
          "name": "",
          "type": "bool"
        }
      ],
      "stateMutability": "view",
      "type": "function",
      "constant": true
    }
  ],
  "bytecode": "0x60a0604052600560809081525066038d7ea4c68000600e55655af3107a4000600f5560036010553480156200003357600080fd5b506040518060400160405280600d81526020017f53706f6e6765626f626269657a000000000000000000000000000000000000008152506040518060400160405280600581526020017f535047425a0000000000000000000000000000000000000000000000000000008152508160009081620000b19190620004c6565b508060019081620000c39190620004c6565b5050506000600a60006101000a81548160ff02191690831515021790555062000101620000f56200017e60201b60201c565b6200018660201b60201c565b6001600b819055506000601460006101000a81548160ff02191690836002811115620001325762000131620005ad565b5b021790555033601160006101000a81548173ffffffffffffffffffffffffffffffffffffffff021916908373ffffffffffffffffffffffffffffffffffffffff160217905550620005dc565b600033905090565b6000600a60019054906101000a900473ffffffffffffffffffffffffffffffffffffffff16905081600a60016101000a81548173ffffffffffffffffffffffffffffffffffffffff021916908373ffffffffffffffffffffffffffffffffffffffff1602179055508173ffffffffffffffffffffffffffffffffffffffff168173ffffffffffffffffffffffffffffffffffffffff167f8be0079c531659141344cd1fd0a4f28419497f9722a3daafe3b4186f6b6457e060405160405180910390a35050565b600081519050919050565b7f4e487b7100000000000000000000000000000000000000000000000000000000600052604160045260246000fd5b7f4e487b7100000000000000000000000000000000000000000000000000000000600052602260045260246000fd5b60006002820490506001821680620002ce57607f821691505b602082108103620002e457620002e362000286565b5b50919050565b60008190508160005260206000209050919050565b60006020601f8301049050919050565b600082821b905092915050565b6000600883026200034e7fffffffffffffffffffffffffffffffffffffffffffffffffffffffffffffffff826200030f565b6200035a86836200030f565b95508019841693508086168417925050509392505050565b6000819050919050565b6000819050919050565b6000620003a7620003a16200039b8462000372565b6200037c565b62000372565b9050919050565b6000819050919050565b620003c38362000386565b620003db620003d282620003ae565b8484546200031c565b825550505050565b600090565b620003f2620003e3565b620003ff818484620003b8565b505050565b5b8181101562000427576200041b600082620003e8565b60018101905062000405565b5050565b601f82111562000476576200044081620002ea565b6200044b84620002ff565b810160208510156200045b578190505b620004736200046a85620002ff565b83018262000404565b50505b505050565b600082821c905092915050565b60006200049b600019846008026200047b565b1980831691505092915050565b6000620004b6838362000488565b9150826002028217905092915050565b620004d1826200024c565b67ffffffffffffffff811115620004ed57620004ec62000257565b5b620004f98254620002b5565b620005068282856200042b565b600060209050601f8311600181146200053e576000841562000529578287015190505b620005358582620004a8565b865550620005a5565b601f1984166200054e86620002ea565b60005b82811015620005785784890151825560018201915060208501945060208101905062000551565b8683101562000598578489015162000594601f89168262000488565b8355505b6001600288020188555050505b505050505050565b7f4e487b7100000000000000000000000000000000000000000000000000000000600052602160045260246000fd5b608051614b9e620005f86000396000610a360152614b9e6000f3fe6080604052600436106101d15760003560e01c806370a08231116100f7578063b88d4fde11610095578063dddf10b411610064578063dddf10b4146106dc578063e985e9c5146106f3578063f150a04914610730578063f2fde38b1461075b57610240565b8063b88d4fde1461060e578063c87b56dd14610637578063cb37f3b214610674578063d936547e1461069f57610240565b80638da5cb5b116100d15780638da5cb5b1461056657806395d89b41146105915780639b19251a146105bc578063a22cb465146105e557610240565b806370a08231146104fb578063715018a6146105385780638456cb591461054f57610240565b80632f745c591161016f5780634f6ccce71161013e5780634f6ccce71461042d57806355f804b31461046a5780635c975abb146104935780636352211e146104be57610240565b80632f745c59146103855780633ccfd60b146103c25780633f4ba83a146103ed57806342842e0e1461040457610240565b8063095ea7b3116101ab578063095ea7b3146102ea5780631249c58b1461031357806318160ddd1461033157806323b872dd1461035c57610240565b806301ffc9a71461024557806306fdde0314610282578063081812fc146102ad57610240565b3661024057601160009054906101000a900473ffffffffffffffffffffffffffffffffffffffff1673ffffffffffffffffffffffffffffffffffffffff166108fc349081150290604051600060405180830381858888f1935050505015801561023e573d6000803e3d6000fd5b005b600080fd5b34801561025157600080fd5b5061026c60048036038101906102679190613134565b610784565b604051610279919061317c565b60405180910390f35b34801561028e57600080fd5b50610297610796565b6040516102a49190613227565b60405180910390f35b3480156102b957600080fd5b506102d460048036038101906102cf919061327f565b610828565b6040516102e191906132ed565b60405180910390f35b3480156102f657600080fd5b50610311600480360381019061030c9190613334565b61086e565b005b61031b610985565b604051610328919061317c565b60405180910390f35b34801561033d57600080fd5b50610346610e95565b6040516103539190613383565b60405180910390f35b34801561036857600080fd5b50610383600480360381019061037e919061339e565b610ea2565b005b34801561039157600080fd5b506103ac60048036038101906103a79190613334565b610f02565b6040516103b99190613383565b60405180910390f35b3480156103ce57600080fd5b506103d7610fa7565b6040516103e4919061317c565b60405180910390f35b3480156103f957600080fd5b5061040261107d565b005b34801561041057600080fd5b5061042b6004803603810190610426919061339e565b61108f565b005b34801561043957600080fd5b50610454600480360381019061044f919061327f565b6110af565b6040516104619190613383565b60405180910390f35b34801561047657600080fd5b50610491600480360381019061048c9190613526565b611120565b005b34801561049f57600080fd5b506104a861113b565b6040516104b5919061317c565b60405180910390f35b3480156104ca57600080fd5b506104e560048036038101906104e0919061327f565b611152565b6040516104f291906132ed565b60405180910390f35b34801561050757600080fd5b50610522600480360381019061051d919061356f565b6111d8565b60405161052f9190613383565b60405180910390f35b34801561054457600080fd5b5061054d61128f565b005b34801561055b57600080fd5b506105646112a3565b005b34801561057257600080fd5b5061057b6112b5565b60405161058891906132ed565b60405180910390f35b34801561059d57600080fd5b506105a66112df565b6040516105b39190613227565b60405180910390f35b3480156105c857600080fd5b506105e360048036038101906105de919061356f565b611371565b005b3480156105f157600080fd5b5061060c600480360381019061060791906135c8565b611467565b005b34801561061a57600080fd5b50610635600480360381019061063091906136a9565b61147d565b005b34801561064357600080fd5b5061065e6004803603810190610659919061327f565b6114df565b60405161066b9190613227565b60405180910390f35b34801561068057600080fd5b50610689611548565b604051610696919061374d565b60405180910390f35b3480156106ab57600080fd5b506106c660048036038101906106c1919061356f565b61156e565b6040516106d3919061317c565b60405180910390f35b3480156106e857600080fd5b506106f161158e565b005b3480156106ff57600080fd5b5061071a60048036038101906107159190613768565b611741565b604051610727919061317c565b60405180910390f35b34801561073c57600080fd5b506107456117d5565b604051610752919061381f565b60405180910390f35b34801561076757600080fd5b50610782600480360381019061077d919061356f565b6117e8565b005b600061078f8261186b565b9050919050565b6060600080546107a590613869565b80601f01602080910402602001604051908101604052809291908181526020018280546107d190613869565b801561081e5780601f106107f35761010080835404028352916020019161081e565b820191906000526020600020905b81548152906001019060200180831161080157829003601f168201915b5050505050905090565b6000610833826118e5565b6004600083815260200190815260200160002060009054906101000a900473ffffffffffffffffffffffffffffffffffffffff169050919050565b600061087982611152565b90508073ffffffffffffffffffffffffffffffffffffffff168373ffffffffffffffffffffffffffffffffffffffff16036108e9576040517f08c379a00000000000000000000000000000000000000000000000000000000081526004016108e09061390c565b60405180910390fd5b8073ffffffffffffffffffffffffffffffffffffffff16610908611930565b73ffffffffffffffffffffffffffffffffffffffff161480610937575061093681610931611930565b611741565b5b610976576040517f08c379a000000000000000000000000000000000000000000000000000000000815260040161096d9061399e565b60405180910390fd5b6109808383611938565b505050565b6000601460009054906101000a900460ff16600160028111156109ab576109aa6137a8565b5b8160028111156109be576109bd6137a8565b5b14806109ed57506002808111156109d8576109d76137a8565b5b8160028111156109eb576109ea6137a8565b5b145b610a2c576040517f08c379a0000000000000000000000000000000000000000000000000000000008152600401610a2390613a0a565b60405180910390fd5b610a346119f1565b7f0000000000000000000000000000000000000000000000000000000000000000610a5d610e95565b10610a9d576040517f08c379a0000000000000000000000000000000000000000000000000000000008152600401610a9490613a76565b60405180910390fd5b60006001610aab600c611a3b565b610ab59190613ac5565b905060016002811115610acb57610aca6137a8565b5b601460009054906101000a900460ff166002811115610aed57610aec6137a8565b5b03610d2957601260003373ffffffffffffffffffffffffffffffffffffffff1673ffffffffffffffffffffffffffffffffffffffff16815260200190815260200160002060009054906101000a900460ff16610b7e576040517f08c379a0000000000000000000000000000000000000000000000000000000008152600401610b7590613b45565b60405180910390fd5b600f54341015610bc3576040517f08c379a0000000000000000000000000000000000000000000000000000000008152600401610bba90613bb1565b60405180910390fd5b601054601360003373ffffffffffffffffffffffffffffffffffffffff1673ffffffffffffffffffffffffffffffffffffffff1681526020019081526020016000205410610c46576040517f08c379a0000000000000000000000000000000000000000000000000000000008152600401610c3d90613c1d565b60405180910390fd5b6001601360003373ffffffffffffffffffffffffffffffffffffffff1673ffffffffffffffffffffffffffffffffffffffff1681526020019081526020016000206000828254610c969190613ac5565b92505081905550610ca7600c611a49565b60003373ffffffffffffffffffffffffffffffffffffffff16600f54604051610ccf90613c6e565b60006040518083038185875af1925050503d8060008114610d0c576040519150601f19603f3d011682016040523d82523d6000602084013e610d11565b606091505b50509050610d1f3383611a5f565b8093505050610e91565b600280811115610d3c57610d3b6137a8565b5b601460009054906101000a900460ff166002811115610d5e57610d5d6137a8565b5b03610e8b57600e54341015610da8576040517f08c379a0000000000000000000000000000000000000000000000000000000008152600401610d9f90613bb1565b60405180910390fd5b6001601360003373ffffffffffffffffffffffffffffffffffffffff1673ffffffffffffffffffffffffffffffffffffffff1681526020019081526020016000206000828254610df89190613ac5565b92505081905550610e09600c611a49565b60003373ffffffffffffffffffffffffffffffffffffffff16600e54604051610e3190613c6e565b60006040518083038185875af1925050503d8060008114610e6e576040519150601f19603f3d011682016040523d82523d6000602084013e610e73565b606091505b50509050610e813383611a5f565b8093505050610e91565b60009250505b5090565b6000600880549050905090565b610eb3610ead611930565b82611a7d565b610ef2576040517f08c379a0000000000000000000000000000000000000000000000000000000008152600401610ee990613cf5565b60405180910390fd5b610efd838383611b12565b505050565b6000610f0d836111d8565b8210610f4e576040517f08c379a0000000000000000000000000000000000000000000000000000000008152600401610f4590613d87565b60405180910390fd5b600660008473ffffffffffffffffffffffffffffffffffffffff1673ffffffffffffffffffffffffffffffffffffffff168152602001908152602001600020600083815260200190815260200160002054905092915050565b6000610fb1611e0b565b610fb9611e89565b600047905060008111611001576040517f08c379a0000000000000000000000000000000000000000000000000000000008152600401610ff890613df3565b60405180910390fd5b60003373ffffffffffffffffffffffffffffffffffffffff168260405161102790613c6e565b60006040518083038185875af1925050503d8060008114611064576040519150601f19603f3d011682016040523d82523d6000602084013e611069565b606091505b50509050809250505061107a611ed8565b90565b611085611e0b565b61108d611ee2565b565b6110aa8383836040518060200160405280600081525061147d565b505050565b60006110b9610e95565b82106110fa576040517f08c379a00000000000000000000000000000000000000000000000000000000081526004016110f190613e85565b60405180910390fd5b6008828154811061110e5761110d613ea5565b5b90600052602060002001549050919050565b611128611e0b565b80600d90816111379190614080565b5050565b6000600a60009054906101000a900460ff16905090565b60008061115e83611f45565b9050600073ffffffffffffffffffffffffffffffffffffffff168173ffffffffffffffffffffffffffffffffffffffff16036111cf576040517f08c379a00000000000000000000000000000000000000000000000000000000081526004016111c69061419e565b60405180910390fd5b80915050919050565b60008073ffffffffffffffffffffffffffffffffffffffff168273ffffffffffffffffffffffffffffffffffffffff1603611248576040517f08c379a000000000000000000000000000000000000000000000000000000000815260040161123f90614230565b60405180910390fd5b600360008373ffffffffffffffffffffffffffffffffffffffff1673ffffffffffffffffffffffffffffffffffffffff168152602001908152602001600020549050919050565b611297611e0b565b6112a16000611f82565b565b6112ab611e0b565b6112b3612048565b565b6000600a60019054906101000a900473ffffffffffffffffffffffffffffffffffffffff16905090565b6060600180546112ee90613869565b80601f016020809104026020016040519081016040528092919081815260200182805461131a90613869565b80156113675780601f1061133c57610100808354040283529160200191611367565b820191906000526020600020905b81548152906001019060200180831161134a57829003601f168201915b5050505050905090565b611379611e0b565b60001515601260008373ffffffffffffffffffffffffffffffffffffffff1673ffffffffffffffffffffffffffffffffffffffff16815260200190815260200160002060009054906101000a900460ff1615151461140c576040517f08c379a00000000000000000000000000000000000000000000000000000000081526004016114039061429c565b60405180910390fd5b6001601260008373ffffffffffffffffffffffffffffffffffffffff1673ffffffffffffffffffffffffffffffffffffffff16815260200190815260200160002060006101000a81548160ff02191690831515021790555050565b611479611472611930565b83836120ab565b5050565b61148e611488611930565b83611a7d565b6114cd576040517f08c379a00000000000000000000000000000000000000000000000000000000081526004016114c490613cf5565b60405180910390fd5b6114d984848484612217565b50505050565b60606114ea826118e5565b60006114f4612273565b905060008151116115145760405180602001604052806000815250611540565b600d61151f84612305565b6040516020016115309291906143c7565b6040516020818303038152906040525b915050919050565b601160009054906101000a900473ffffffffffffffffffffffffffffffffffffffff1681565b60126020528060005260406000206000915054906101000a900460ff1681565b611596611e0b565b600060028111156115aa576115a96137a8565b5b601460009054906101000a900460ff1660028111156115cc576115cb6137a8565b5b148061160b5750600160028111156115e7576115e66137a8565b5b601460009054906101000a900460ff166002811115611609576116086137a8565b5b145b61161457600080fd5b6000601460009054906101000a900460ff1690506000600281111561163c5761163b6137a8565b5b601460009054906101000a900460ff16600281111561165e5761165d6137a8565b5b03611693576001601460006101000a81548160ff02191690836002811115611689576116886137a8565b5b02179055506116fb565b600160028111156116a7576116a66137a8565b5b601460009054906101000a900460ff1660028111156116c9576116c86137a8565b5b036116fa576002601460006101000a81548160ff021916908360028111156116f4576116f36137a8565b5b02179055505b5b601460009054906101000a900460ff16600281111561171d5761171c6137a8565b5b8160028111156117305761172f6137a8565b5b0361173e5761173d6143f6565b5b50565b6000600560008473ffffffffffffffffffffffffffffffffffffffff1673ffffffffffffffffffffffffffffffffffffffff16815260200190815260200160002060008373ffffffffffffffffffffffffffffffffffffffff1673ffffffffffffffffffffffffffffffffffffffff16815260200190815260200160002060009054906101000a900460ff16905092915050565b601460009054906101000a900460ff1681565b6117f0611e0b565b600073ffffffffffffffffffffffffffffffffffffffff168173ffffffffffffffffffffffffffffffffffffffff160361185f576040517f08c379a000000000000000000000000000000000000000000000000000000000815260040161185690614497565b60405180910390fd5b61186881611f82565b50565b60007f780e9d63000000000000000000000000000000000000000000000000000000007bffffffffffffffffffffffffffffffffffffffffffffffffffffffff1916827bffffffffffffffffffffffffffffffffffffffffffffffffffffffff191614806118de57506118dd826123d3565b5b9050919050565b6118ee816124b5565b61192d576040517f08c379a00000000000000000000000000000000000000000000000000000000081526004016119249061419e565b60405180910390fd5b50565b600033905090565b816004600083815260200190815260200160002060006101000a81548173ffffffffffffffffffffffffffffffffffffffff021916908373ffffffffffffffffffffffffffffffffffffffff160217905550808273ffffffffffffffffffffffffffffffffffffffff166119ab83611152565b73ffffffffffffffffffffffffffffffffffffffff167f8c5be1e5ebec7d5bd14f71427d1e84f3dd0314c0f7b2291e5b200ac8c7c3b92560405160405180910390a45050565b6119f961113b565b15611a39576040517f08c379a0000000000000000000000000000000000000000000000000000000008152600401611a3090614503565b60405180910390fd5b565b600081600001549050919050565b6001816000016000828254019250508190555050565b611a798282604051806020016040528060008152506124f6565b5050565b600080611a8983611152565b90508073ffffffffffffffffffffffffffffffffffffffff168473ffffffffffffffffffffffffffffffffffffffff161480611acb5750611aca8185611741565b5b80611b0957508373ffffffffffffffffffffffffffffffffffffffff16611af184610828565b73ffffffffffffffffffffffffffffffffffffffff16145b91505092915050565b8273ffffffffffffffffffffffffffffffffffffffff16611b3282611152565b73ffffffffffffffffffffffffffffffffffffffff1614611b88576040517f08c379a0000000000000000000000000000000000000000000000000000000008152600401611b7f90614595565b60405180910390fd5b600073ffffffffffffffffffffffffffffffffffffffff168273ffffffffffffffffffffffffffffffffffffffff1603611bf7576040517f08c379a0000000000000000000000000000000000000000000000000000000008152600401611bee90614627565b60405180910390fd5b611c048383836001612551565b8273ffffffffffffffffffffffffffffffffffffffff16611c2482611152565b73ffffffffffffffffffffffffffffffffffffffff1614611c7a576040517f08c379a0000000000000000000000000000000000000000000000000000000008152600401611c7190614595565b60405180910390fd5b6004600082815260200190815260200160002060006101000a81549073ffffffffffffffffffffffffffffffffffffffff02191690556001600360008573ffffffffffffffffffffffffffffffffffffffff1673ffffffffffffffffffffffffffffffffffffffff168152602001908152602001600020600082825403925050819055506001600360008473ffffffffffffffffffffffffffffffffffffffff1673ffffffffffffffffffffffffffffffffffffffff16815260200190815260200160002060008282540192505081905550816002600083815260200190815260200160002060006101000a81548173ffffffffffffffffffffffffffffffffffffffff021916908373ffffffffffffffffffffffffffffffffffffffff160217905550808273ffffffffffffffffffffffffffffffffffffffff168473ffffffffffffffffffffffffffffffffffffffff167fddf252ad1be2c89b69c2b068fc378daa952ba7f163c4a11628f55a4df523b3ef60405160405180910390a4611e06838383600161256b565b505050565b611e13611930565b73ffffffffffffffffffffffffffffffffffffffff16611e316112b5565b73ffffffffffffffffffffffffffffffffffffffff1614611e87576040517f08c379a0000000000000000000000000000000000000000000000000000000008152600401611e7e90614693565b60405180910390fd5b565b6002600b5403611ece576040517f08c379a0000000000000000000000000000000000000000000000000000000008152600401611ec5906146ff565b60405180910390fd5b6002600b81905550565b6001600b81905550565b611eea612571565b6000600a60006101000a81548160ff0219169083151502179055507f5db9ee0a495bf2e6ff9c91a7834c1ba4fdd244a5e8aa4e537bd38aeae4b073aa611f2e611930565b604051611f3b91906132ed565b60405180910390a1565b60006002600083815260200190815260200160002060009054906101000a900473ffffffffffffffffffffffffffffffffffffffff169050919050565b6000600a60019054906101000a900473ffffffffffffffffffffffffffffffffffffffff16905081600a60016101000a81548173ffffffffffffffffffffffffffffffffffffffff021916908373ffffffffffffffffffffffffffffffffffffffff1602179055508173ffffffffffffffffffffffffffffffffffffffff168173ffffffffffffffffffffffffffffffffffffffff167f8be0079c531659141344cd1fd0a4f28419497f9722a3daafe3b4186f6b6457e060405160405180910390a35050565b6120506119f1565b6001600a60006101000a81548160ff0219169083151502179055507f62e78cea01bee320cd4e420270b5ea74000d11b0c9f74754ebdbfc544b05a258612094611930565b6040516120a191906132ed565b60405180910390a1565b8173ffffffffffffffffffffffffffffffffffffffff168373ffffffffffffffffffffffffffffffffffffffff1603612119576040517f08c379a00000000000000000000000000000000000000000000000000000000081526004016121109061476b565b60405180910390fd5b80600560008573ffffffffffffffffffffffffffffffffffffffff1673ffffffffffffffffffffffffffffffffffffffff16815260200190815260200160002060008473ffffffffffffffffffffffffffffffffffffffff1673ffffffffffffffffffffffffffffffffffffffff16815260200190815260200160002060006101000a81548160ff0219169083151502179055508173ffffffffffffffffffffffffffffffffffffffff168373ffffffffffffffffffffffffffffffffffffffff167f17307eab39ab6107e8899845ad3d59bd9653f200f220920489ca2b5937696c318360405161220a919061317c565b60405180910390a3505050565b612222848484611b12565b61222e848484846125ba565b61226d576040517f08c379a0000000000000000000000000000000000000000000000000000000008152600401612264906147fd565b60405180910390fd5b50505050565b6060600d805461228290613869565b80601f01602080910402602001604051908101604052809291908181526020018280546122ae90613869565b80156122fb5780601f106122d0576101008083540402835291602001916122fb565b820191906000526020600020905b8154815290600101906020018083116122de57829003601f168201915b5050505050905090565b60606000600161231484612741565b01905060008167ffffffffffffffff811115612333576123326133fb565b5b6040519080825280601f01601f1916602001820160405280156123655781602001600182028036833780820191505090505b509050600082602001820190505b6001156123c8578080600190039150507f3031323334353637383961626364656600000000000000000000000000000000600a86061a8153600a85816123bc576123bb61481d565b5b04945060008503612373575b819350505050919050565b60007f80ac58cd000000000000000000000000000000000000000000000000000000007bffffffffffffffffffffffffffffffffffffffffffffffffffffffff1916827bffffffffffffffffffffffffffffffffffffffffffffffffffffffff1916148061249e57507f5b5e139f000000000000000000000000000000000000000000000000000000007bffffffffffffffffffffffffffffffffffffffffffffffffffffffff1916827bffffffffffffffffffffffffffffffffffffffffffffffffffffffff1916145b806124ae57506124ad82612894565b5b9050919050565b60008073ffffffffffffffffffffffffffffffffffffffff166124d783611f45565b73ffffffffffffffffffffffffffffffffffffffff1614159050919050565b61250083836128fe565b61250d60008484846125ba565b61254c576040517f08c379a0000000000000000000000000000000000000000000000000000000008152600401612543906147fd565b60405180910390fd5b505050565b6125596119f1565b61256584848484612b1b565b50505050565b50505050565b61257961113b565b6125b8576040517f08c379a00000000000000000000000000000000000000000000000000000000081526004016125af90614898565b60405180910390fd5b565b60006125db8473ffffffffffffffffffffffffffffffffffffffff16612c79565b15612734578373ffffffffffffffffffffffffffffffffffffffff1663150b7a02612604611930565b8786866040518563ffffffff1660e01b8152600401612626949392919061490d565b6020604051808303816000875af192505050801561266257506040513d601f19601f8201168201806040525081019061265f919061496e565b60015b6126e4573d8060008114612692576040519150601f19603f3d011682016040523d82523d6000602084013e612697565b606091505b5060008151036126dc576040517f08c379a00000000000000000000000000000000000000000000000000000000081526004016126d3906147fd565b60405180910390fd5b805181602001fd5b63150b7a0260e01b7bffffffffffffffffffffffffffffffffffffffffffffffffffffffff1916817bffffffffffffffffffffffffffffffffffffffffffffffffffffffff191614915050612739565b600190505b949350505050565b600080600090507a184f03e93ff9f4daa797ed6e38ed64bf6a1f010000000000000000831061279f577a184f03e93ff9f4daa797ed6e38ed64bf6a1f01000000000000000083816127955761279461481d565b5b0492506040810190505b6d04ee2d6d415b85acef810000000083106127dc576d04ee2d6d415b85acef810000000083816127d2576127d161481d565b5b0492506020810190505b662386f26fc10000831061280b57662386f26fc1000083816128015761280061481d565b5b0492506010810190505b6305f5e1008310612834576305f5e100838161282a5761282961481d565b5b0492506008810190505b612710831061285957612710838161284f5761284e61481d565b5b0492506004810190505b6064831061287c57606483816128725761287161481d565b5b0492506002810190505b600a831061288b576001810190505b80915050919050565b60007f01ffc9a7000000000000000000000000000000000000000000000000000000007bffffffffffffffffffffffffffffffffffffffffffffffffffffffff1916827bffffffffffffffffffffffffffffffffffffffffffffffffffffffff1916149050919050565b600073ffffffffffffffffffffffffffffffffffffffff168273ffffffffffffffffffffffffffffffffffffffff160361296d576040517f08c379a0000000000000000000000000000000000000000000000000000000008152600401612964906149e7565b60405180910390fd5b612976816124b5565b156129b6576040517f08c379a00000000000000000000000000000000000000000000000000000000081526004016129ad90614a53565b60405180910390fd5b6129c4600083836001612551565b6129cd816124b5565b15612a0d576040517f08c379a0000000000000000000000000000000000000000000000000000000008152600401612a0490614a53565b60405180910390fd5b6001600360008473ffffffffffffffffffffffffffffffffffffffff1673ffffffffffffffffffffffffffffffffffffffff16815260200190815260200160002060008282540192505081905550816002600083815260200190815260200160002060006101000a81548173ffffffffffffffffffffffffffffffffffffffff021916908373ffffffffffffffffffffffffffffffffffffffff160217905550808273ffffffffffffffffffffffffffffffffffffffff16600073ffffffffffffffffffffffffffffffffffffffff167fddf252ad1be2c89b69c2b068fc378daa952ba7f163c4a11628f55a4df523b3ef60405160405180910390a4612b1760008383600161256b565b5050565b612b2784848484612c9c565b6001811115612b6b576040517f08c379a0000000000000000000000000000000000000000000000000000000008152600401612b6290614ae5565b60405180910390fd5b6000829050600073ffffffffffffffffffffffffffffffffffffffff168573ffffffffffffffffffffffffffffffffffffffff1603612bb257612bad81612dc2565b612bf1565b8373ffffffffffffffffffffffffffffffffffffffff168573ffffffffffffffffffffffffffffffffffffffff1614612bf057612bef8582612e0b565b5b5b600073ffffffffffffffffffffffffffffffffffffffff168473ffffffffffffffffffffffffffffffffffffffff1603612c3357612c2e81612f78565b612c72565b8473ffffffffffffffffffffffffffffffffffffffff168473ffffffffffffffffffffffffffffffffffffffff1614612c7157612c708482613049565b5b5b5050505050565b6000808273ffffffffffffffffffffffffffffffffffffffff163b119050919050565b6001811115612dbc57600073ffffffffffffffffffffffffffffffffffffffff168473ffffffffffffffffffffffffffffffffffffffff1614612d305780600360008673ffffffffffffffffffffffffffffffffffffffff1673ffffffffffffffffffffffffffffffffffffffff1681526020019081526020016000206000828254612d289190614b05565b925050819055505b600073ffffffffffffffffffffffffffffffffffffffff168373ffffffffffffffffffffffffffffffffffffffff1614612dbb5780600360008573ffffffffffffffffffffffffffffffffffffffff1673ffffffffffffffffffffffffffffffffffffffff1681526020019081526020016000206000828254612db39190613ac5565b925050819055505b5b50505050565b6008805490506009600083815260200190815260200160002081905550600881908060018154018082558091505060019003906000526020600020016000909190919091505550565b60006001612e18846111d8565b612e229190614b05565b9050600060076000848152602001908152602001600020549050818114612f07576000600660008673ffffffffffffffffffffffffffffffffffffffff1673ffffffffffffffffffffffffffffffffffffffff168152602001908152602001600020600084815260200190815260200160002054905080600660008773ffffffffffffffffffffffffffffffffffffffff1673ffffffffffffffffffffffffffffffffffffffff168152602001908152602001600020600084815260200190815260200160002081905550816007600083815260200190815260200160002081905550505b6007600084815260200190815260200160002060009055600660008573ffffffffffffffffffffffffffffffffffffffff1673ffffffffffffffffffffffffffffffffffffffff16815260200190815260200160002060008381526020019081526020016000206000905550505050565b60006001600880549050612f8c9190614b05565b9050600060096000848152602001908152602001600020549050600060088381548110612fbc57612fbb613ea5565b5b906000526020600020015490508060088381548110612fde57612fdd613ea5565b5b90600052602060002001819055508160096000838152602001908152602001600020819055506009600085815260200190815260200160002060009055600880548061302d5761302c614b39565b5b6001900381819060005260206000200160009055905550505050565b6000613054836111d8565b905081600660008573ffffffffffffffffffffffffffffffffffffffff1673ffffffffffffffffffffffffffffffffffffffff168152602001908152602001600020600083815260200190815260200160002081905550806007600084815260200190815260200160002081905550505050565b6000604051905090565b600080fd5b600080fd5b60007fffffffff0000000000000000000000000000000000000000000000000000000082169050919050565b613111816130dc565b811461311c57600080fd5b50565b60008135905061312e81613108565b92915050565b60006020828403121561314a576131496130d2565b5b60006131588482850161311f565b91505092915050565b60008115159050919050565b61317681613161565b82525050565b6000602082019050613191600083018461316d565b92915050565b600081519050919050565b600082825260208201905092915050565b60005b838110156131d15780820151818401526020810190506131b6565b60008484015250505050565b6000601f19601f8301169050919050565b60006131f982613197565b61320381856131a2565b93506132138185602086016131b3565b61321c816131dd565b840191505092915050565b6000602082019050818103600083015261324181846131ee565b905092915050565b6000819050919050565b61325c81613249565b811461326757600080fd5b50565b60008135905061327981613253565b92915050565b600060208284031215613295576132946130d2565b5b60006132a38482850161326a565b91505092915050565b600073ffffffffffffffffffffffffffffffffffffffff82169050919050565b60006132d7826132ac565b9050919050565b6132e7816132cc565b82525050565b600060208201905061330260008301846132de565b92915050565b613311816132cc565b811461331c57600080fd5b50565b60008135905061332e81613308565b92915050565b6000806040838503121561334b5761334a6130d2565b5b60006133598582860161331f565b925050602061336a8582860161326a565b9150509250929050565b61337d81613249565b82525050565b60006020820190506133986000830184613374565b92915050565b6000806000606084860312156133b7576133b66130d2565b5b60006133c58682870161331f565b93505060206133d68682870161331f565b92505060406133e78682870161326a565b9150509250925092565b600080fd5b600080fd5b7f4e487b7100000000000000000000000000000000000000000000000000000000600052604160045260246000fd5b613433826131dd565b810181811067ffffffffffffffff82111715613452576134516133fb565b5b80604052505050565b60006134656130c8565b9050613471828261342a565b919050565b600067ffffffffffffffff821115613491576134906133fb565b5b61349a826131dd565b9050602081019050919050565b82818337600083830152505050565b60006134c96134c484613476565b61345b565b9050828152602081018484840111156134e5576134e46133f6565b5b6134f08482856134a7565b509392505050565b600082601f83011261350d5761350c6133f1565b5b813561351d8482602086016134b6565b91505092915050565b60006020828403121561353c5761353b6130d2565b5b600082013567ffffffffffffffff81111561355a576135596130d7565b5b613566848285016134f8565b91505092915050565b600060208284031215613585576135846130d2565b5b60006135938482850161331f565b91505092915050565b6135a581613161565b81146135b057600080fd5b50565b6000813590506135c28161359c565b92915050565b600080604083850312156135df576135de6130d2565b5b60006135ed8582860161331f565b92505060206135fe858286016135b3565b9150509250929050565b600067ffffffffffffffff821115613623576136226133fb565b5b61362c826131dd565b9050602081019050919050565b600061364c61364784613608565b61345b565b905082815260208101848484011115613668576136676133f6565b5b6136738482856134a7565b509392505050565b600082601f8301126136905761368f6133f1565b5b81356136a0848260208601613639565b91505092915050565b600080600080608085870312156136c3576136c26130d2565b5b60006136d18782880161331f565b94505060206136e28782880161331f565b93505060406136f38782880161326a565b925050606085013567ffffffffffffffff811115613714576137136130d7565b5b6137208782880161367b565b91505092959194509250565b6000613737826132ac565b9050919050565b6137478161372c565b82525050565b6000602082019050613762600083018461373e565b92915050565b6000806040838503121561377f5761377e6130d2565b5b600061378d8582860161331f565b925050602061379e8582860161331f565b9150509250929050565b7f4e487b7100000000000000000000000000000000000000000000000000000000600052602160045260246000fd5b600381106137e8576137e76137a8565b5b50565b60008190506137f9826137d7565b919050565b6000613809826137eb565b9050919050565b613819816137fe565b82525050565b60006020820190506138346000830184613810565b92915050565b7f4e487b7100000000000000000000000000000000000000000000000000000000600052602260045260246000fd5b6000600282049050600182168061388157607f821691505b6020821081036138945761389361383a565b5b50919050565b7f4552433732313a20617070726f76616c20746f2063757272656e74206f776e6560008201527f7200000000000000000000000000000000000000000000000000000000000000602082015250565b60006138f66021836131a2565b91506139018261389a565b604082019050919050565b60006020820190508181036000830152613925816138e9565b9050919050565b7f4552433732313a20617070726f76652063616c6c6572206973206e6f7420746f60008201527f6b656e206f776e6572206f7220617070726f76656420666f7220616c6c000000602082015250565b6000613988603d836131a2565b91506139938261392c565b604082019050919050565b600060208201905081810360008301526139b78161397b565b9050919050565b7f4d696e74696e672069732063757272656e746c7920636c6f7365640000000000600082015250565b60006139f4601b836131a2565b91506139ff826139be565b602082019050919050565b60006020820190508181036000830152613a23816139e7565b9050919050565b7f4d617820737570706c79206c696d697420726561636865640000000000000000600082015250565b6000613a606018836131a2565b9150613a6b82613a2a565b602082019050919050565b60006020820190508181036000830152613a8f81613a53565b9050919050565b7f4e487b7100000000000000000000000000000000000000000000000000000000600052601160045260246000fd5b6000613ad082613249565b9150613adb83613249565b9250828201905080821115613af357613af2613a96565b5b92915050565b7f55736572206973206e6f742077686974656c6973746564000000000000000000600082015250565b6000613b2f6017836131a2565b9150613b3a82613af9565b602082019050919050565b60006020820190508181036000830152613b5e81613b22565b9050919050565b7f496e73756666696369656e742046756e64730000000000000000000000000000600082015250565b6000613b9b6012836131a2565b9150613ba682613b65565b602082019050919050565b60006020820190508181036000830152613bca81613b8e565b9050919050565b7f57686974656c697374204d696e74204361702045786365656465640000000000600082015250565b6000613c07601b836131a2565b9150613c1282613bd1565b602082019050919050565b60006020820190508181036000830152613c3681613bfa565b9050919050565b600081905092915050565b50565b6000613c58600083613c3d565b9150613c6382613c48565b600082019050919050565b6000613c7982613c4b565b9150819050919050565b7f4552433732313a2063616c6c6572206973206e6f7420746f6b656e206f776e6560008201527f72206f7220617070726f76656400000000000000000000000000000000000000602082015250565b6000613cdf602d836131a2565b9150613cea82613c83565b604082019050919050565b60006020820190508181036000830152613d0e81613cd2565b9050919050565b7f455243373231456e756d657261626c653a206f776e657220696e646578206f7560008201527f74206f6620626f756e6473000000000000000000000000000000000000000000602082015250565b6000613d71602b836131a2565b9150613d7c82613d15565b604082019050919050565b60006020820190508181036000830152613da081613d64565b9050919050565b7f436f6e74726163742066756e647320616c72656164792077697468647261776e600082015250565b6000613ddd6020836131a2565b9150613de882613da7565b602082019050919050565b60006020820190508181036000830152613e0c81613dd0565b9050919050565b7f455243373231456e756d657261626c653a20676c6f62616c20696e646578206f60008201527f7574206f6620626f756e64730000000000000000000000000000000000000000602082015250565b6000613e6f602c836131a2565b9150613e7a82613e13565b604082019050919050565b60006020820190508181036000830152613e9e81613e62565b9050919050565b7f4e487b7100000000000000000000000000000000000000000000000000000000600052603260045260246000fd5b60008190508160005260206000209050919050565b60006020601f8301049050919050565b600082821b905092915050565b600060088302613f367fffffffffffffffffffffffffffffffffffffffffffffffffffffffffffffffff82613ef9565b613f408683613ef9565b95508019841693508086168417925050509392505050565b6000819050919050565b6000613f7d613f78613f7384613249565b613f58565b613249565b9050919050565b6000819050919050565b613f9783613f62565b613fab613fa382613f84565b848454613f06565b825550505050565b600090565b613fc0613fb3565b613fcb818484613f8e565b505050565b5b81811015613fef57613fe4600082613fb8565b600181019050613fd1565b5050565b601f8211156140345761400581613ed4565b61400e84613ee9565b8101602085101561401d578190505b61403161402985613ee9565b830182613fd0565b50505b505050565b600082821c905092915050565b600061405760001984600802614039565b1980831691505092915050565b60006140708383614046565b9150826002028217905092915050565b61408982613197565b67ffffffffffffffff8111156140a2576140a16133fb565b5b6140ac8254613869565b6140b7828285613ff3565b600060209050601f8311600181146140ea57600084156140d8578287015190505b6140e28582614064565b86555061414a565b601f1984166140f886613ed4565b60005b82811015614120578489015182556001820191506020850194506020810190506140fb565b8683101561413d5784890151614139601f891682614046565b8355505b6001600288020188555050505b505050505050565b7f4552433732313a20696e76616c696420746f6b656e2049440000000000000000600082015250565b60006141886018836131a2565b915061419382614152565b602082019050919050565b600060208201905081810360008301526141b78161417b565b9050919050565b7f4552433732313a2061646472657373207a65726f206973206e6f74206120766160008201527f6c6964206f776e65720000000000000000000000000000000000000000000000602082015250565b600061421a6029836131a2565b9150614225826141be565b604082019050919050565b600060208201905081810360008301526142498161420d565b9050919050565b7f5573657220697320616c72656164792077686974656c69737465642100000000600082015250565b6000614286601c836131a2565b915061429182614250565b602082019050919050565b600060208201905081810360008301526142b581614279565b9050919050565b600081905092915050565b600081546142d481613869565b6142de81866142bc565b945060018216600081146142f9576001811461430e57614341565b60ff1983168652811515820286019350614341565b61431785613ed4565b60005b838110156143395781548189015260018201915060208101905061431a565b838801955050505b50505092915050565b600061435582613197565b61435f81856142bc565b935061436f8185602086016131b3565b80840191505092915050565b7f2e6a736f6e000000000000000000000000000000000000000000000000000000600082015250565b60006143b16005836142bc565b91506143bc8261437b565b600582019050919050565b60006143d382856142c7565b91506143df828461434a565b91506143ea826143a4565b91508190509392505050565b7f4e487b7100000000000000000000000000000000000000000000000000000000600052600160045260246000fd5b7f4f776e61626c653a206e6577206f776e657220697320746865207a65726f206160008201527f6464726573730000000000000000000000000000000000000000000000000000602082015250565b60006144816026836131a2565b915061448c82614425565b604082019050919050565b600060208201905081810360008301526144b081614474565b9050919050565b7f5061757361626c653a2070617573656400000000000000000000000000000000600082015250565b60006144ed6010836131a2565b91506144f8826144b7565b602082019050919050565b6000602082019050818103600083015261451c816144e0565b9050919050565b7f4552433732313a207472616e736665722066726f6d20696e636f72726563742060008201527f6f776e6572000000000000000000000000000000000000000000000000000000602082015250565b600061457f6025836131a2565b915061458a82614523565b604082019050919050565b600060208201905081810360008301526145ae81614572565b9050919050565b7f4552433732313a207472616e7366657220746f20746865207a65726f2061646460008201527f7265737300000000000000000000000000000000000000000000000000000000602082015250565b60006146116024836131a2565b915061461c826145b5565b604082019050919050565b6000602082019050818103600083015261464081614604565b9050919050565b7f4f776e61626c653a2063616c6c6572206973206e6f7420746865206f776e6572600082015250565b600061467d6020836131a2565b915061468882614647565b602082019050919050565b600060208201905081810360008301526146ac81614670565b9050919050565b7f5265656e7472616e637947756172643a207265656e7472616e742063616c6c00600082015250565b60006146e9601f836131a2565b91506146f4826146b3565b602082019050919050565b60006020820190508181036000830152614718816146dc565b9050919050565b7f4552433732313a20617070726f766520746f2063616c6c657200000000000000600082015250565b60006147556019836131a2565b91506147608261471f565b602082019050919050565b6000602082019050818103600083015261478481614748565b9050919050565b7f4552433732313a207472616e7366657220746f206e6f6e20455243373231526560008201527f63656976657220696d706c656d656e7465720000000000000000000000000000602082015250565b60006147e76032836131a2565b91506147f28261478b565b604082019050919050565b60006020820190508181036000830152614816816147da565b9050919050565b7f4e487b7100000000000000000000000000000000000000000000000000000000600052601260045260246000fd5b7f5061757361626c653a206e6f7420706175736564000000000000000000000000600082015250565b60006148826014836131a2565b915061488d8261484c565b602082019050919050565b600060208201905081810360008301526148b181614875565b9050919050565b600081519050919050565b600082825260208201905092915050565b60006148df826148b8565b6148e981856148c3565b93506148f98185602086016131b3565b614902816131dd565b840191505092915050565b600060808201905061492260008301876132de565b61492f60208301866132de565b61493c6040830185613374565b818103606083015261494e81846148d4565b905095945050505050565b60008151905061496881613108565b92915050565b600060208284031215614984576149836130d2565b5b600061499284828501614959565b91505092915050565b7f4552433732313a206d696e7420746f20746865207a65726f2061646472657373600082015250565b60006149d16020836131a2565b91506149dc8261499b565b602082019050919050565b60006020820190508181036000830152614a00816149c4565b9050919050565b7f4552433732313a20746f6b656e20616c7265616479206d696e74656400000000600082015250565b6000614a3d601c836131a2565b9150614a4882614a07565b602082019050919050565b60006020820190508181036000830152614a6c81614a30565b9050919050565b7f455243373231456e756d657261626c653a20636f6e736563757469766520747260008201527f616e7366657273206e6f7420737570706f727465640000000000000000000000602082015250565b6000614acf6035836131a2565b9150614ada82614a73565b604082019050919050565b60006020820190508181036000830152614afe81614ac2565b9050919050565b6000614b1082613249565b9150614b1b83613249565b9250828203905081811115614b3357614b32613a96565b5b92915050565b7f4e487b7100000000000000000000000000000000000000000000000000000000600052603160045260246000fdfea264697066735822122052035aa84c94aabb186136aa9c1b5c86392d326a33eea33ebfc26188477ac66964736f6c63430008110033",
  "immutableReferences": {
    "3302": [
      {
        "length": 32,
        "start": 2614
      }
    ]
  },
  "source": "// SPDX-License-Identifier: MIT\r\npragma solidity ^0.8.9;\r\n\r\nimport \"@openzeppelin/contracts/token/ERC721/ERC721.sol\";\r\nimport \"@openzeppelin/contracts/token/ERC721/extensions/ERC721Enumerable.sol\";\r\nimport \"@openzeppelin/contracts/security/Pausable.sol\";\r\n\r\nimport \"@openzeppelin/contracts/access/Ownable.sol\";\r\nimport \"@openzeppelin/contracts/utils/Counters.sol\";\r\nimport \"@openzeppelin/contracts/utils/Strings.sol\";\r\n\r\nimport \"@openzeppelin/contracts/security/ReentrancyGuard.sol\";\r\n\r\n\r\n/// @custom:security-contact contact@altify.io\r\ncontract Spongebobbiez is ERC721, ERC721Enumerable, Pausable, Ownable, ReentrancyGuard {\r\n    using Counters for Counters.Counter;\r\n    using Strings for uint256;\r\n\r\n    Counters.Counter private _tokenIdCounter;\r\n\r\n    string private baseURI;\r\n\r\n    uint immutable maxSupply = 5;\r\n    uint publicMintPrice = 0.001 ether;\r\n    uint privateMintPrice = 0.0001 ether;\r\n    uint whitelistMintCap = 3;\r\n\r\n    address payable public paymentReceiver;\r\n\r\n    mapping(address => bool) public whitelisted;\r\n    mapping(address => uint) mintedTokens;\r\n\r\n    enum Stage {\r\n        closed,\r\n        whitelist,\r\n        publicOpen\r\n    }\r\n\r\n    Stage public mintStage;\r\n\r\n    modifier mintOpen(Stage _currentStage){\r\n        require(_currentStage == Stage.whitelist || _currentStage == Stage.publicOpen, \"Minting is currently closed\");\r\n        _;\r\n    }\r\n\r\n    constructor() ERC721(\"Spongebobbiez\", \"SPGBZ\") {\r\n        mintStage = Stage.closed;\r\n        paymentReceiver = payable(msg.sender);\r\n    }\r\n\r\n    function _baseURI() internal view override returns (string memory) {\r\n        return baseURI;\r\n    }\r\n\r\n    function pause() public onlyOwner {\r\n        _pause();\r\n    }\r\n\r\n    function unpause() public onlyOwner {\r\n        _unpause();\r\n    }\r\n    \r\n    receive() external payable {\r\n        paymentReceiver.transfer(msg.value);\r\n    }\r\n\r\n    \r\n    function mint() public payable mintOpen(mintStage) whenNotPaused returns(bool) {\r\n        require(totalSupply() < maxSupply, \"Max supply limit reached\");\r\n        uint currentTokenID = _tokenIdCounter.current() + 1;\r\n\r\n        if(mintStage == Stage.whitelist){\r\n            require(whitelisted[msg.sender], \"User is not whitelisted\");\r\n            require(msg.value >= privateMintPrice, \"Insufficient Funds\");\r\n            require(mintedTokens[msg.sender] < whitelistMintCap, \"Whitelist Mint Cap Exceeded\");\r\n            mintedTokens[msg.sender] += 1;\r\n            _tokenIdCounter.increment();\r\n            (bool whitelistSuccess, ) = payable(msg.sender).call{value: privateMintPrice}('');\r\n            _safeMint(msg.sender, currentTokenID);\r\n            return whitelistSuccess;\r\n        } else if (mintStage == Stage.publicOpen){\r\n            require(msg.value >= publicMintPrice, \"Insufficient Funds\");\r\n            mintedTokens[msg.sender] += 1;\r\n            _tokenIdCounter.increment();\r\n            (bool publicSuccess, ) = payable(msg.sender).call{value: publicMintPrice}('');\r\n            _safeMint(msg.sender, currentTokenID);\r\n            return publicSuccess;\r\n        } else {\r\n            return false;\r\n        }\r\n        \r\n    }\r\n\r\n    function whitelist(address _user) external onlyOwner {\r\n        require(whitelisted[_user] == false, \"User is already whitelisted!\");\r\n        whitelisted[_user] = true;\r\n    }\r\n\r\n\r\n    function withdraw() external onlyOwner nonReentrant returns(bool) {\r\n        uint contractBalance = address(this).balance;\r\n        require(contractBalance > 0, \"Contract funds already withdrawn\");\r\n        (bool withdrawSuccess, ) = payable(msg.sender).call{value: contractBalance}('');\r\n        return withdrawSuccess;\r\n    }\r\n\r\n\r\n    function _beforeTokenTransfer(address from, address to, uint256 tokenId, uint256 batchSize)\r\n        internal\r\n        whenNotPaused\r\n        override(ERC721, ERC721Enumerable)\r\n    {\r\n        super._beforeTokenTransfer(from, to, tokenId, batchSize);\r\n    }\r\n\r\n\r\n    function setBaseURI(string memory _newURI) public onlyOwner {\r\n        baseURI = _newURI;\r\n    }\r\n\r\n\r\n    function tokenURI(uint256 tokenId) public view virtual override returns (string memory) {\r\n        _requireMinted(tokenId);\r\n\r\n        string memory currentURI = _baseURI();\r\n        return bytes(currentURI).length > 0 ? string(abi.encodePacked(baseURI, tokenId.toString(), \".json\")) : \"\";\r\n    } \r\n\r\n\r\n    function updateMintStage() external onlyOwner {\r\n        require(mintStage == Stage.closed || mintStage == Stage.whitelist);\r\n\r\n        Stage currentMintStage = mintStage;\r\n\r\n        if(mintStage == Stage.closed){\r\n            mintStage = Stage.whitelist;\r\n        } else if (mintStage == Stage.whitelist){\r\n            mintStage = Stage.publicOpen;\r\n        }\r\n\r\n        assert(currentMintStage != mintStage);\r\n    }\r\n\r\n    // The following functions are overrides required by Solidity.\r\n\r\n    function supportsInterface(bytes4 interfaceId)\r\n        public\r\n        view\r\n        override(ERC721, ERC721Enumerable)\r\n        returns (bool)\r\n    {\r\n        return super.supportsInterface(interfaceId);\r\n    }\r\n}",
  "sourcePath": "C:\\Users\\danie\\OneDrive\\Desktop\\Altify\\NFT Creation\\ERC721_LOWCAP\\contracts\\Spongebobbiez.sol",
  "compiler": {
    "name": "solc",
    "version": "0.8.17+commit.8df45f5f.Emscripten.clang"
  },
  "schemaVersion": "3.4.11",
  "updatedAt": "2023-01-02T11:23:26.697Z",
  "networkType": "ethereum",
  "devdoc": {
    "custom:security-contact": "contact@altify.io",
    "kind": "dev",
    "methods": {
      "approve(address,uint256)": {
        "details": "See {IERC721-approve}."
      },
      "balanceOf(address)": {
        "details": "See {IERC721-balanceOf}."
      },
      "getApproved(uint256)": {
        "details": "See {IERC721-getApproved}."
      },
      "isApprovedForAll(address,address)": {
        "details": "See {IERC721-isApprovedForAll}."
      },
      "name()": {
        "details": "See {IERC721Metadata-name}."
      },
      "owner()": {
        "details": "Returns the address of the current owner."
      },
      "ownerOf(uint256)": {
        "details": "See {IERC721-ownerOf}."
      },
      "paused()": {
        "details": "Returns true if the contract is paused, and false otherwise."
      },
      "renounceOwnership()": {
        "details": "Leaves the contract without owner. It will not be possible to call `onlyOwner` functions anymore. Can only be called by the current owner. NOTE: Renouncing ownership will leave the contract without an owner, thereby removing any functionality that is only available to the owner."
      },
      "safeTransferFrom(address,address,uint256)": {
        "details": "See {IERC721-safeTransferFrom}."
      },
      "safeTransferFrom(address,address,uint256,bytes)": {
        "details": "See {IERC721-safeTransferFrom}."
      },
      "setApprovalForAll(address,bool)": {
        "details": "See {IERC721-setApprovalForAll}."
      },
      "symbol()": {
        "details": "See {IERC721Metadata-symbol}."
      },
      "tokenByIndex(uint256)": {
        "details": "See {IERC721Enumerable-tokenByIndex}."
      },
      "tokenOfOwnerByIndex(address,uint256)": {
        "details": "See {IERC721Enumerable-tokenOfOwnerByIndex}."
      },
      "tokenURI(uint256)": {
        "details": "See {IERC721Metadata-tokenURI}."
      },
      "totalSupply()": {
        "details": "See {IERC721Enumerable-totalSupply}."
      },
      "transferFrom(address,address,uint256)": {
        "details": "See {IERC721-transferFrom}."
      },
      "transferOwnership(address)": {
        "details": "Transfers ownership of the contract to a new account (`newOwner`). Can only be called by the current owner."
      }
    },
    "version": 1
  },
  "userdoc": {
    "kind": "user",
    "methods": {},
    "version": 1
  }
}